:03026900011A0077
:10023600758920758DFD758BFD7598505387EF4335
:05024600A890D28E22F9
:03024B002430FF5D
:08024E008F993099FDC299223D
:10017900AE07EE54F0D3949074809480EEC4540F7B
:100189004004243780022430FF12024EEE540FFF40
:10019900D39409748094804005EF24378005EE5488
:0801A9000F2430FF12024E2268
:1000B200AD07AC06EC54F0FED3E49400EE9490EC61
:1000C200C4540F4004243780022430FF12024EEC45
:1000D200540FFED3E49400EE9409EC540F40042430
:1000E2003780022430FF12024EED54F0D39490E494
:1000F2009400ECC4F854F0C8400BEDC4540F4854BB
:100102000F24378009EDC4540F48540F2430FF12D6
:10011200024EED540FD39409E49400ED540F4004C1
:0B012200243780022430FF12024E221E
:10020800EF12024BED12024BEB2430FF12024EE5C7
:07021800162430FF02024E24
:1001B1008B178A188919AB17AA18A9191201EF60B0
:1001C100130519E5197002051814F91201EFFF1250
:0401D100024E80E278
:0101D5002207
:0A025600EF1F70011E144E70F72216
:10021F00AD07AC06ED1D70011C144C60097F0B7E01
:07022F000012025680EE22CE
:10000300E4FFEFC39403748094805012E4FEEEC3C4
:0E001300941D7480948050030E80F30F80E4DF
:0100210022BC
:0401D600AD07AC06BF
:1001DA00E4FBFAC3EB9DEA9C500A1200030BBB0036
:0401EA00010A80EF97
:0101EE0022EE
:10012D00C2AF1202367F647E001201D6C292D29106
:10013D007F647E001201D67FC012024EE4FF1202D0
:10014D004E12024E7F1912024E7F2E12024EFF12D8
:10015D00024E7F64FE1201D6C292C291D2AF7F9938
:0C016D0012024E7FE87E031201D680F2E1
:0300230002026076
:09026000309805C29885991A3204
:03000000020026D5
:0C002600787FE4F6D8FD75811A02006DA9
:1001EF00BB010689828A83E0225002E722BBFE020E
:0901FF00E32289828A83E4932241
:1000320002012DE493A3F8E493A34003F68001F2B6
:1000420008DFF48029E493A3F85407240CC8C333CF
:10005200C4540F4420C8834004F456800146F6DF9E
:10006200E4800B0102040810204080900269E47EC3
:10007200019360BCA3FF543F30E509541FFEE49393
:10008200A360010ECF54C025E060A840B8E493A35A
:10009200FAE493A3F8E493A3C8C582C8CAC583CA85
:1000A200F0A3C8C582C8CAC583CADFE9DEE780BE3D
:01026C000091
:00000001FF
