:03023600011A00AA
:10020300758920758DFD758BFD7598505387EF4368
:05021300A890D28E222C
:030218002430FF90
:08021B008F993099FDC2992270
:10012D00AE07EE54F0D3949074809480EEC4540FC7
:10013D004004243780022430FF12021BEE540FFFBF
:10014D00D39409748094804005EF24378005EE54D4
:08015D000F2430FF12021B22E7
:1000B200AD07AC06EC54F0FED3E49400EE9490EC61
:1000C200C4540F4004243780022430FF12021BEC78
:1000D200540FFED3E49400EE9409EC540F40042430
:1000E2003780022430FF12021BED54F0D39490E4C7
:1000F2009400ECC4F854F0C8400BEDC4540F4854BB
:100102000F24378009EDC4540F48540F2430FF12D6
:10011200021BED540FD39409E49400ED540F4004F4
:0B012200243780022430FF12021B2251
:1001D500EF120218ED120218EB2430FF12021BE594
:0701E500162430FF02021B8B
:100165008B178A188919AB17AA18A9191201BC602F
:10017500130519E5197002051814F91201BCFF12CF
:04018500021B80E2F7
:010189002253
:0A022300EF1F70011E144E70F72249
:1001EC00AD07AC06ED1D70011C144C60097F0B7E35
:0701FC000012022380EE2235
:10000300E4FFEFC39403748094805012E4FEEEC3C4
:0E001300941D7480948050030E80F30F80E4DF
:0100210022BC
:04018A00AD07AC060B
:10018E00E4FBFAC3EB9DEA9C500A1200030BBB0082
:04019E00010A80EFE3
:0101A200223A
:1001A300C2AF120203D2AFC292C2917F9912021B55
:0901B3007FE87E0312018A80F24C
:0300230002022DA9
:09022D00309805C29885991A3237
:03000000020026D5
:0C002600787FE4F6D8FD75811A02006DA9
:1001BC00BB010689828A83E0225002E722BBFE0241
:0901CC00E32289828A83E4932274
:100032000201A3E493A3F8E493A34003F68001F240
:1000420008DFF48029E493A3F85407240CC8C333CF
:10005200C4540F4420C8834004F456800146F6DF9E
:10006200E4800B0102040810204080900236E47EF6
:10007200019360BCA3FF543F30E509541FFEE49393
:10008200A360010ECF54C025E060A840B8E493A35A
:10009200FAE493A3F8E493A3C8C582C8CAC583CA85
:1000A200F0A3C8C582C8CAC583CADFE9DEE780BE3D
:0102390000C4
:00000001FF
