:10022700758920758DFD758BFD7598505387EFD2B5
:050237008EE4F5A82291
:030267002430FF41
:08026A008F993099FDC2992221
:10015F00AE07EE54F0D3949074809480EEC4540F95
:10016F004004243780022430FF12026AEE540FFF3E
:10017F00D39409748094804005EF24378005EE54A2
:08018F000F2430FF12026A2266
:10001600AD07AC06EC54F0FED3E49400EE9490ECFD
:10002600C4540F4004243780022430FF12026AECC5
:10003600540FFED3E49400EE9409EC540F400424CC
:100046003780022430FF12026AED54F0D39490E414
:100056009400ECC4F854F0C8400BEDC4540F485457
:100066000F24378009EDC4540F48540F2430FF1273
:10007600026AED540FD39409E49400ED540F400442
:0B008600243780022430FF12026A229F
:10021000EF120267ED120267EB2430FF12026AE56B
:070220000B2430FF02026A0B
:100197008B0C8A0D890EAB0CAA0DA90E120091606B
:1001A70013050EE50E7002050D14F9120091FF12EA
:0401B700026A80E276
:0101BB002221
:0E024D005389F0438901E4F58CF58AD2A92289
:05000300D28AD2AA22FE
:10023C007C007D0A1200AAEF1F70011E144E70F78D
:01024C00228F
:1001DB00AB07AA060BBB00010AEB1B70011A144AF2
:0C01EB0060097F847E0312023C80EE223B
:1001BC00E4FFEFC3940A748094805012E4FEEEC303
:0E01CC0094217480948050030E80F30F80E421
:0101DA002202
:0401F700AD07AC069E
:1001FB00E4FBFAC3EB9DEA9C500A1201BC0BBB005B
:04020B00010A80EF75
:01020F0022CC
:1000FF00120227C291C2922080057F4C12026A2001
:10010F0081057F5212026A2082057F4612026A2001
:10011F0083057F4212026A2084057F5512026A20EE
:10012F0085057F4412026A2086057F5712026A20D6
:10013F0087057F5812026A2093057F5912026A20A1
:10014F0094057F5A12026A7FC87E001201F780A7BA
:03001300020008E0
:03000800C28B3276
:03000B0002000EE2
:03000E00C28D326E
:0300000002025B9E
:0C025B00787FE4F6D8FD75810E0200FFEC
:10009100BB010689828A83E0225002E722BBFE026D
:0900A100E32289828A83E49322A0
:1000AA00BC000BBE0029EF8DF084FFADF022E4CC3A
:1000BA00F875F008EF2FFFEE33FEEC33FCEE9DEC03
:1000CA00984005FCEE9DFE0FD5F0E9E4CEFD22ED49
:1000DA00F8F5F0EE8420D21CFEADF075F008EF2F93
:1000EA00FFED33FD4007985006D5F0F222C398FD84
:0500FA000FD5F0EA2221
:00000001FF
