:10010800080938395335320D0A0013115946592058
:0F011800456C65637472696F6E6965730D0A00DB
:10008F00759840E4F587D29C758920758DFD758B29
:10009F00FDD28EE4F50874092508F8E6600BF59992
:1000AF003099FDC299050880EDE4F583F582AA83A6
:1000BF00AB82AF03AE02E4FCFD7B507AC3F9F8D3F9
:1000CF001201284003A380E6E4F50874112508F80F
:1000DF00E6600BF5993099FDC299050880EDE4F5BE
:1000EF0083F582AF82AE83E4FCFD7B507AC3F9F8CF
:0900FF00D3120128409DA380EA00
:03000000020003F8
:0C000300787FE4F6D8FD75812302004AE6
:10012800EB9FF5F0EA9E42F0E99D42F0EC6480C84E
:0601380064809845F022EE
:10000F0002008FE493A3F8E493A34003F68001F278
:10001F0008DFF48029E493A3F85407240CC8C333F2
:10002F00C4540F4420C8834004F456800146F6DFC1
:10003F00E4800B0102040810204080900108E47E48
:10004F00019360BCA3FF543F30E509541FFEE493B6
:10005F00A360010ECF54C025E060A840B8E493A37D
:10006F00FAE493A3F8E493A3C8C582C8CAC583CAA8
:10007F00F0A3C8C582C8CAC583CADFE9DEE780BE60
:0101270000D7
:00000001FF
