:1001C0004C65667400526967687400466F727761A7
:1001D0007264004261636B00557053706565640022
:1001E000446F776E53706565640046310046320097
:0601F00046330046340016
:10028600758920758DFD758BFD7598505387EFD256
:050296008EE4F5A82232
:0302C6002430FFE2
:0802C9008F993099FDC29922C2
:10018800AE07EE54F0D3949074809480EEC4540F6C
:100198004004243780022430FF1202C9EE540FFFB6
:1001A800D39409748094804005EF24378005EE5479
:0801B8000F2430FF1202C922DE
:10009F00AD07AC06EC54F0FED3E49400EE9490EC74
:1000AF00C4540F4004243780022430FF1202C9ECDD
:1000BF00540FFED3E49400EE9409EC540F40042443
:1000CF003780022430FF1202C9ED54F0D39490E42C
:1000DF009400ECC4F854F0C8400BEDC4540F4854CE
:1000EF000F24378009EDC4540F48540F2430FF12EA
:1000FF0002C9ED540FD39409E49400ED540F40045A
:0B010F00243780022430FF1202C922B6
:10026F00EF1202C6ED1202C6EB2430FF1202C9E5EF
:07027F000B2430FF0202C94D
:1001F6008B0C8A0D890EAB0CAA0DA90E12011A6082
:1002060013050EE50E7002050D14F912011AFF1200
:0402160002C980E2B7
:01021A0022C1
:0E02AC005389F0438901E4F58CF58AD2A9222A
:05000300D28AD2AA22FE
:10029B007C007D0A120133EF1F70011E144E70F7A4
:0102AB002230
:10023A00AB07AA060BBB00010AEB1B70011A144A92
:0C024A0060097F847E0312029B80EE227C
:10021B00E4FFEFC3940A748094805012E4FEEEC3A3
:0E022B0094217480948050030E80F30F80E4C1
:0102390022A2
:04025600AD07AC063E
:10025A00E4FBFAC3EB9DEA9C500A12021B0BBB009B
:04026A00010A80EF16
:01026E00226D
:10001600120286C291C2922080097BFF7A0179C0C2
:100026001201F62081097BFF7A0179C51201F620BB
:1000360082097BFF7A0179CB1201F62083097BFFC7
:100046007A0179D31201F62084097BFF7A0179D8E7
:100056001201F62085097BFF7A0179E01201F6206C
:1000660086097BFF7A0179EA1201F62087097BFF70
:100076007A0179ED1201F62093097BFF7A0179F076
:100086001201F62094097BFF7A0179F31201F67FBB
:09009600C87E0012025602001D92
:03001300020008E0
:03000800C28B3276
:03000B0002000EE2
:03000E00C28D326E
:030000000202BA3F
:0C02BA00787FE4F6D8FD75810E02001676
:10011A00BB010689828A83E0225002E722BBFE02E3
:09012A00E32289828A83E4932216
:10013300BC000BBE0029EF8DF084FFADF022E4CCB0
:10014300F875F008EF2FFFEE33FEEC33FCEE9DEC79
:10015300984005FCEE9DFE0FD5F0E9E4CEFD22EDBF
:10016300F8F5F0EE8420D21CFEADF075F008EF2F09
:10017300FFED33FD4007985006D5F0F222C398FDFA
:050183000FD5F0EA2297
:00000001FF
