:020000040800F2
:1000000000040020CF010008E7030008DF03000818
:10001000E303000887020008C3070008000000008F
:10002000000000000000000000000000E1040008E3
:100030008B02000800000000E9030008D105000859
:10004000EF010008EF010008EF010008EF010008D0
:10005000EF010008EF010008EF010008EF010008C0
:10006000EF010008EF010008EF010008EF010008B0
:10007000EF010008EF010008EF010008EF010008A0
:10008000EF010008EF010008EF010008EF01000890
:10009000EF010008EF010008EF010008EF01000880
:1000A000EF010008EF010008EF010008EF01000870
:1000B000EF010008EF010008EF010008EF01000860
:1000C000EF010008EF010008EF010008EF01000850
:1000D000EF010008EF010008EF010008EF01000840
:1000E000EF010008EF010008EF010008EF01000830
:1000F000EF010008EF010008EF010008EF01000820
:10010000EF010008EF010008EF010008EF0100080F
:10011000EF010008EF010008EF010008EF010008FF
:10012000EF010008EF010008EF010008EF010008EF
:1001300000F002F800F03AF80AA090E8000C8244BF
:100140008344AAF10107DA4501D100F02FF8AFF29C
:10015000090EBAE80F0013F0010F18BFFB1A43F0A5
:100160000103184784060000A4060000103A24BFCB
:1001700078C878C1FAD8520724BF30C830C144BF0C
:1001800004680C607047000000230024002500264E
:10019000103A28BF78C1FBD8520728BF30C148BFEA
:1001A0000B6070471FB51FBD10B510BD00F035F8CE
:1001B0001146FFF7F7FF00F007FB00F053F803B418
:1001C000FFF7F2FF03BC00F057F8000070470B4840
:1001D00080470B4981F308880A480047FEE7FEE79D
:1001E000FEE7FEE7FEE7FEE7FEE7FEE7FEE7FEE7E7
:1001F00005480649044A064B70470000CD01000837
:1002000078020020310100087800002078020020E8
:1002100078000020704770477047754600F028F856
:10022000AE4605006946534620F00700854618B0E3
:1002300020B5FFF7DDFFBDE820404FF000064FF08E
:1002400000074FF000084FF0000B21F00701AC460B
:10025000ACE8C009ACE8C009ACE8C009ACE8C0092A
:100260008D4670470446AFF300802046FFF7A7FF96
:10027000004870471400002001491820ABBEFEE77B
:1002800026000200704700BFFEE7704708B5012155
:10029000042000F0ABF8C020ADF8000010208DF86D
:1002A000030003208DF802006946044800F008F8B6
:1002B000C021024800F091F808BD0000000801408C
:1002C0002DE9F041024600250026002000230024ED
:1002D000002791F803C00CF00F0591F803C00CF053
:1002E000100CBCF1000F03D091F802C04CEA0505D8
:1002F00091F800C0BCF1000F31D0146800202BE051
:100300004FF0010C0CFA00F3B1F800C00CEA030640
:100310009E4220D183004FF00F0C0CFA03F7BC4330
:1003200005FA03FC4CEA040491F803C0BCF1280F61
:1003300006D14FF0010C0CFA00FCC2F814C00AE020
:1003400091F803C0BCF1480F05D14FF0010C0CFA35
:1003500000FCC2F810C0401C0828D1D31460B1F8CA
:1003600000C0BCF1FF0F34DD546800202EE000F126
:10037000080C4FF0010808FA0CF3B1F800C00CEAC1
:1003800003069E4221D183004FF00F0C0CFA03F7B5
:10039000BC4305FA03FC4CEA040491F803C0BCF129
:1003A000280F05D100F1080C08FA0CF8C2F81480E7
:1003B00091F803C0BCF1480F07D100F1080C4FF0D1
:1003C000010808FA0CF8C2F81080401C0828CED3A7
:1003D0005460BDE8F081416170470161704700BF22
:1003E000FEE700BFFEE770477047000029B1064AEC
:1003F00092690243044B9A6104E0034A9269824382
:10040000014B9A61704700000010024030B5002196
:100410000022002400232D4D6D6805F00C0121B150
:10042000042905D0082923D105E0294D056022E0E3
:10043000274D05601FE0254D6D6805F470120225FB
:1004400005EB9242214D6D6805F480341CB9214DB5
:10045000554305600BE01D4D6D6805F400351DB179
:100460001C4D5543056002E0194D5543056002E0FF
:10047000174D056000BF00BF144D6D6805F0F00119
:100480000909154D6B5C0568DD4045600F4D6D68D1
:1004900005F4E061090A104D6B5C4568DD4085603C
:1004A0000A4D6D6805F46051C90A0B4D6B5C4568D7
:1004B000DD40C560054D6D6805F44041890B074D71
:1004C0006B5CC568B5FBF3F5056130BD00100240FB
:1004D00000127A0000093D000000002010000020FA
:1004E000704710B500F002F810BD00000CB50020F8
:1004F000019000903448006840F480303249086030
:1005000000BF3148006800F4003000900198401CA2
:100510000190009818B90198B0F5A06FF1D12A4860
:10052000006800F4003010B10120009001E00020CC
:1005300000900098012844D12448006840F0100041
:10054000224908600846006820F003000860084659
:10055000006840F0020008601B4840681A49486083
:100560000846406848600846406840F4806048603B
:100570000846406820F47C1048600846406840F413
:10058000E81048600846006840F08070086000BFCE
:100590000D48006800F000700028F9D00A48406853
:1005A00020F00300084948600846406840F0020017
:1005B000486000BF0448406800F00C000828F9D1EA
:1005C00001E000BFFEE70CBD001002400020024029
:1005D0007047000010B51048006840F001000E4957
:1005E0000860084640680D4908400B4948600846C5
:1005F00000680B490840084908600846006820F474
:10060000802008600846406820F4FE004860002012
:100610008860FFF766FF10BD001002400000FFF881
:10062000FFFFF6FE10B504462021064800F068F8EA
:1006300008B9002010BD034800F0BAF8207001206E
:10064000F8E700000038014008B5002000900AE0FB
:1006500004E09DF80010044800F0AFF86846FFF78A
:10066000E1FF0028F5D1F3E70038014000B585B07F
:10067000012144F20400FFF7B9FE4FF40070ADF819
:10068000100018208DF8130003208DF8120004A923
:100690001348FFF715FE4FF48060ADF810000420FA
:1006A0008DF8130004A90E48FFF70AFE4FF4165008
:1006B00000900020ADF80400ADF80600ADF8080089
:1006C000ADF80C000C20ADF80A006946054800F0B2
:1006D00021F80121034800F007F805B000BD000033
:1006E000000801400038014021B1828942F40052E3
:1006F000828104E082894DF6FF731A40828170473F
:100700000246002013880B400BB1012000E00020BE
:10071000704700002DE9F04786B005460E460024DC
:10072000A24600BF00BF00272F462C8A4CF6FF7060
:100730000440F08804432C82AC894EF6F310044048
:10074000B08831890843718908430443AC81AC8A7D
:100750004FF6FF400440B0890443AC8201A8FFF784
:1007600055FE1248874202D1DDF810A001E0DDF805
:100770000CA00AEBCA0000EB0A1031688900B0FB3C
:10078000F1F86420B8FBF0F004012009642101FBBA
:100790001089322000EB0910B0FBF1F000F00F00DF
:1007A00004432C8106B0BDE8F0870000003801400A
:1007B00001468888C0F308007047C1F308028280B0
:1007C000704700BFFEE70000FFF704FFFFF74EFF92
:1007D000FFF75CFDC0210348FFF7FDFD01E0FFF7D7
:1007E00033FFFCE700080140080800080000002073
:1007F000140000006C0100081C0800081400002010
:1008000064020000880100080000000001020304E7
:0C081000010203040607080902040608A0
:0400000508000131BD
:00000001FF
