:020000040800F2
:10000000000400204701000899060008390600088E
:10001000950600086D050008D507000800000000DF
:10002000000000000000000000000000B906000809
:1000300071050008000000009D060008BD060008CC
:1000400067010008670100086701000867010008F0
:1000500067010008670100086701000867010008E0
:1000600067010008670100086701000867010008D0
:1000700067010008670100086701000867010008C0
:1000800067010008670100086701000867010008B0
:1000900067010008670100086701000867010008A0
:1000A0006701000867010008670100086701000890
:1000B0006701000867010008670100086701000880
:1000C0006701000867010008670100086701000870
:1000D0006701000867010008670100086701000860
:1000E0006701000867010008670100086701000850
:1000F0006701000867010008670100086701000840
:10010000670100086701000867010008670100082F
:10011000670100086701000867010008670100081F
:10012000670100086701000867010008670100080F
:10013000DFF80CD000F002FA00480047D9070008A9
:1001400008020020704708488047084981F3088862
:1001500007480047FEE7FEE7FEE7FEE7FEE7FEE7AB
:10016000FEE7FEE7FEE7FEE7450100080802002083
:10017000310100082DE9FE4F804681EA0300C00FDF
:100180000C46009021F0004123F00045B8EB02003E
:10019000A94105D24046214690461C460B460246E0
:1001A00023F00040104347D0270DC7F30A00C3F3E4
:1001B0000A510290401A019040286BDAC3F31300F1
:1001C00040F4801B0098924620B10023D2EB030A32
:1001D00063EB0B0B01985946C0F14002504600F00A
:1001E0001FF906460D4650465946019A00F037F968
:1001F00010EB08006141002487EA115284EAE7739A
:100200001A4340D0009A62B3019A012A4FEA07527A
:1002100015DC001B61EB02014FF0004202EA0752BD
:10022000CDE90042001C41F5801132462B4600F01A
:1002300037F903B0BDE8F08F40462146F9E7001BCF
:1002400061EB0201001C41F5801300185B4120188E
:10025000A2F5001747EB030140EAD570B6196D41CE
:1002600011E06D084FEA360645EAC0754FEA0752BD
:10027000001B61EB0201001C41F5801149084FEAA7
:1002800030000019514132462B4603B0BDE8F04F13
:1002900000F0F7B80098012240000023D0EB0202E2
:1002A00063EBE073009821464FEAE074B8EB00007E
:1002B00061EB0401E9E783F000435BE781F0004173
:1002C00058E72DE9FE4F81EA030404F0004421F0D1
:1002D000004100944FF0000B23F0004350EA01046A
:1002E0005ED052EA03045BD0C3F30A54C1F30A554B
:1002F0002C44A4F2F3340194A0FB0254C1F3130183
:1003000041F48011C3F3130343F4801301FB02444F
:1003100000FB034E840A970A44EA815447EA835754
:10032000A4FB076802958D0A05FB07854FEA932C0D
:1003300004FB0C542705029D4FEA065847EA16377E
:10034000B5EB08056EEB070C870E920E47EA811796
:1003500042EA8312A7FB0201B6EB0B0164EB000437
:100360002B0D43EA0C335E1844EB1C50DA46514621
:10037000E7FB0201C5F313044FEA0B3343EA1453BE
:100380004FEA0432019C43EA0603A4F10C040294F0
:10039000009CCDE900B400F083F803B0BDE8F08F15
:1003A00000200146F9E70EB5C10F80EAE07008446D
:1003B000CA07002140F233438DE80E000A460B467F
:1003C00000F06EF803B000BD0EB540F2334102916B
:1003D0000021CDE900110A460B4600F061F803B098
:1003E00000BD70B5C1F30A5201F000450024C1F30D
:1003F000130140F2FF3341F480119A4201DA0020E8
:1004000070BD40F233439A42A2F2334203DC5242BF
:1004100000F015F800E090402C43F1D0404270BD50
:10042000202A04DB203A00FA02F1002070479140B4
:10043000C2F1200320FA03F3194390407047202AA9
:1004400004DB203A21FA02F00021704721FA02F37E
:10045000D040C2F120029140084319467047202A3B
:1004600006DBCB17203A41FA02F043EAE07306E0DC
:1004700041FA02F3D040C2F12002914008431946EC
:10048000704710B5141E73F1000408DA401C41F1E6
:10049000000192185B411A4301D120F0010010BD08
:1004A0002DE9F04D92469B4611B1B1FA81F202E07E
:1004B000B0FA80F220329046FFF7B2FF04460F46B2
:1004C00040EA0A0041EA0B0153465A46084313D05A
:1004D000114653EA010019D0C8F140025046FFF717
:1004E000AEFF05460E46504659464246FFF798FF76
:1004F000084305D0012004E020463946BDE8F08DD0
:100500000020054346EAE0762C4337430A9863050A
:10051000E40AA0EB08000022FD0A44EA47540A302E
:1005200002D500200146E9E7010510196941DDE91E
:10053000084500196941BDE8F04DA2E71CB509481E
:100540000090094801900546009C06E0E06840F0F4
:10055000010394E8070098471034AC42F6D3FFF744
:10056000EBFD0000DC0B0008EC0B0008FEE70000D0
:1005700070470000CA7802F00F0CD30644BF8B7896
:100580004CEA030C2DE9F04709880B0624D0864677
:100590005EF8143B00F1100800254FF0010A4FF0FF
:1005A0000F09002406E000BF37600134082C05F174
:1005B000040510D00AFA04F70F42F6D009FA05F63E
:1005C000B3430CFA05F63343282A7646ECD0482A82
:1005D000EBD14646E8E70360B1F5807F38BFBDE860
:1005E000F087436800F1100E00F1140A00254FF463
:1005F00080794FF00F08002706E000BF2660013722
:10060000082F05F1040510D009FA07F60E42F6D0BE
:1006100008FA05F4A3430CFA05F42343282A5446A8
:10062000ECD0482AEBD17446E8E74360BDE8F08798
:100630004161704701617047FEE70000F0B581B08D
:100640001020012100F02CF840F60044C4F201040F
:1006500040F2C03704F580656E46C1F203072846B4
:1006600031460097FFF786FF28464FF47071FFF779
:10067000E1FF0820012100F013F8204631460097E1
:10068000FFF778FF20464FF47071FFF7D3FF01B0FA
:10069000F0BD0000FEE7000070470000704700005A
:1006A000002941F21801C4F202010A680CBF22EAD3
:1006B00000001043086070477047000040F20000DF
:1006C000C2F200000168002908BF704701680139C3
:1006D0000160704782B041F20400C4F2020050F899
:1006E000041C002241F0010140F8041C0168CFF60F
:1006F000FF021140016050F8041C4FF6FF72CFF664
:10070000F662114040F8041C50F8041C21F48021CA
:1007100040F8041C016821F4FE01016000214160E1
:100720000191009150F8041C41F4803140F8041C00
:1007300050F8041C01F4003100910199013101913C
:10074000009919B90199B1F5A06FF1D150F8041CC5
:10075000C1F3404100910099012939D142F20001D1
:10076000C4F202010A6842F010020A600A6822F02C
:1007700003020A600A6842F002020A60016801602E
:1007800001680160016841F480610160016821F441
:100790007C110160016841F4E811016050F8041C0B
:1007A00041F0807140F8041C50F8041C8901FBD50D
:1007B000016821F003010160016841F0020101605C
:1007C000016801F00C010829FAD102B0704700BF9E
:1007D000FEE70000FEE7000082B0FFF77BFF4EF26D
:1007E0001000CEF20000472141604EF62351CEF2B8
:1007F0000001F0220A700021816007210160FFF7EB
:100800001DFF4FF4801000BF0190019810B10198B6
:100810000138F9E740F60044C4F2010440F2000652
:10082000002704F58065C2F2000640F2DC5844F669
:10083000440900BF28464021FFF7FAFEC6F80080B1
:1008400030680028FCD128464021FFF7F3FEC6F8A7
:10085000009000BF30680028FCD10137642FE9D137
:10086000002740F2DC5844F6440900BF20464021EE
:10087000FFF7DEFEC6F8008030680028FCD1204675
:100880004021FFF7D7FEC6F8009000BF306800286F
:10089000FCD10137642FE9D1002740F2DC5844F63F
:1008A000440900BF28468021FFF7C2FEC6F8008039
:1008B00030680028FCD128468021FFF7BBFEC6F82F
:1008C000009000BF30680028FCD10137642FE9D1C7
:1008D000002540F2DC5844F6440700BF2046802142
:1008E000FFF7A6FEC6F8008030680028FCD120463D
:1008F0008021FFF79FFE376030680028FCD101356A
:10090000642DEBD1002542F2107400BF68B201469D
:100910000246034600F02EF8346000BF306800281D
:10092000FCD10135652DF1D1962500BF64206421ED
:100930006422642300F01EF8013DF7D1642500BF56
:1009400068B201460246034600F014F8346000BF66
:1009500030680028FCD1002DA5F10105F0D19627C3
:100960000020002100220023002500F003F8013FB1
:10097000F6D1CBE72DE9F04F85B00D46014664284E
:100980004FF06400B8BF084610F1640F9846174650
:100990006FF06304D8BF20464FF0640621B10129EF
:1009A00005DBFFF711FD05E040F2DC5011E040B23D
:1009B000FFF7F9FC0023C4F204030022FFF781FCD7
:1009C00047F20003C4F297030022FFF7D3FBFFF7BF
:1009D00008FD642D0490B8BF2E4616F1640FC8BF01
:1009E00034462DB1012D06DB2046FFF7EDFC05E076
:1009F00040F2DC5011E060B2FFF7D5FC0023C4F2F6
:100A000004030022FFF75DFC47F20003C4F29703E2
:100A10000022FFF7AFFBFFF7E4FC0390642F4FF0D9
:100A20006400B8BF384610F1640F6FF06304D8BF9C
:100A300020464FF0640527B1012F05DBFFF7C4FC0A
:100A400005E040F2DC5011E040B2FFF7ACFC0023BF
:100A5000C4F204030022FFF734FC47F20003C4F29F
:100A600097030022FFF786FBFFF7BBFCB8F1640F8A
:100A70000290B8BF454615F1640FC8BF2C46B8F1C7
:100A8000000F06D0B8F1010F06DB2046FFF79CFCF3
:100A900005E040F2DC5412E060B2FFF784FC002372
:100AA000C4F204030022FFF70CFC47F20003C4F277
:100AB00097030022FFF75EFBFFF793FC044640F626
:100AC0000046C4F2010606F5806528464021FFF77E
:100AD000AFFD30464021FFF7ABFD28468021FFF7F0
:100AE000A7FD30468021FFF7A3FDDDE90307B842EB
:100AF00088BF07460298B84288BF0746BC420194A7
:100B000088BF274640F20004002FC2F2000447D0FD
:100B10000DF1040BDDF810A09BE8400A4FF000082F
:100B200002E000BFB8453BD2322020602068002898
:100B3000FCD15FEA0A4008F1320808D004988045E9
:100B400005D328464021FFF775FD4FF0000A5FEA04
:100B50000B400BD00398804508D340F60040C4F208
:100B600001004021FFF766FD4FF0000B5FEA0940EE
:100B700008D00298804505D328468021FFF75AFD0A
:100B80004FF000093004CDD001988045CAD340F61B
:100B90000040C4F201008021FFF74CFD0026C1E7B0
:100BA00044F62060C01B98BF4FF47A70206000BFED
:100BB00020680028FCD105B0BDE8F08F02E008C82D
:100BC000121F08C1002AFAD170477047002001E0C7
:100BD00001C1121F002AFBD170470000EC0B000876
:0C0BE0000000002008020000CC0B000800
:0400000508000131BD
:00000001FF
