:0F0276006365736869206A696573686F75210035
:10019100010800010A00010900010D00010C000124
:1001A1001000010F00011200011500011700021AD1
:0601B1000000021C00002A
:10020F00759840E4F587D29C758920758DFD758BA7
:07021F00FD43A890D28E22DE
:030293002430FF15
:080296008F993099FDC29922F5
:10012D00AE07EE54F0D3949074809480EEC4540FC7
:10013D004004243780022430FF120296EE540FFF44
:10014D00D39409748094804005EF24378005EE54D4
:08015D000F2430FF120296226C
:1000B200AD07AC06EC54F0FED3E49400EE9490EC61
:1000C200C4540F4004243780022430FF120296ECFD
:1000D200540FFED3E49400EE9409EC540F40042430
:1000E2003780022430FF120296ED54F0D39490E44C
:1000F2009400ECC4F854F0C8400BEDC4540F4854BB
:100102000F24378009EDC4540F48540F2430FF12D6
:100112000296ED540FD39409E49400ED540F400479
:0B012200243780022430FF12029622D6
:10022600EF120293ED120293EB2430FF120296E5D1
:07023600352430FF0202969F
:1001B8008B2F8A308931AB2FAA30A9311201F66012
:1001C800130531E5317002053014F91201F6FF12FA
:0401D800029680E229
:0101DC002200
:100254005389F0438901758CB8E4F58AD2A9D28C0C
:010264002277
:1002650053890F438910758DFC758B66D2ABD28E81
:010275002266
:0502A800D28AD2AA2257
:0A029E00EF1F70011E144E70F722CE
:10023D00AD07AC06ED1D70011C144C60097F0B7EE3
:07024D000012029E80EE2268
:10000300E4FFEFC39403748094805012E4FEEEC3C4
:0E001300941D7480948050030E80F30F80E4DF
:0100210022BC
:0401DD00AD07AC06B8
:1001E100E4FBFAC3EB9DEA9C500A1200030BBB002F
:0401F100010A80EF90
:0101F50022E7
:10016500C2AF12020FC292C291D2AF7F0A7E0012B5
:1001750001DD7BFF7A0279761201B8E5156401701D
:0C018500FAF515AF17120296D2AF80EF0A
:0300230002028551
:0E02850030980AC2AF751501C29885991732DC
:03000000020026D5
:0C002600787FE4F6D8FD75813502006D8E
:1001F600BB010689828A83E0225002E722BBFE0207
:09020600E32289828A83E4932239
:10003200020165E493A3F8E493A34003F68001F27E
:1000420008DFF48029E493A3F85407240CC8C333CF
:10005200C4540F4420C8834004F456800146F6DF9E
:10006200E4800B0102040810204080900191E47E9C
:10007200019360BCA3FF543F30E509541FFEE49393
:10008200A360010ECF54C025E060A840B8E493A35A
:10009200FAE493A3F8E493A3C8C582C8CAC583CA85
:1000A200F0A3C8C582C8CAC583CADFE9DEE780BE3D
:0101B7000047
:00000001FF
